:040000006BEF00F0B2
:100008004382FACF01F0FBCF02F0E9CF03F0EACF49
:1000180004F0E1CF05F0E2CF06F0D9CF07F0DACF50
:1000280008F0F3CF09F0F4CF0AF0F6CF0BF0F7CFD2
:100038000CF0F8CF0DF0F5CF0EF09EAA29D0AECF78
:100048000FF07E0E0F18D8A407D0000E2D6E010EEB
:100058002C6E0FC088F01CD07E0E00018819D8A421
:1000680017D0880E4124D96E000E4220DA6E0FC0D8
:10007800DFFF425007E1030E415CD8B003D0414A8C
:10008800422A06D0000E426E010E416E010E406EED
:100098009E9A0EC0F5FF0DC0F8FF0CC0F7FF0BC00D
:1000A800F6FF0AC0F4FF09C0F3FF08C0DAFF07C073
:1000B800D9FF06C0E2FF05C0E1FF04C0EAFF03C0A4
:1000C800E9FF02C0FBFF01C0FAFF4392110063EF92
:1000D80003F0000E06EC03F0A0EC03F0829082829D
:1000E800CBEC03F0000E1D6E000E1E6E120E1F6E7E
:1000F8007A0E206E000E216E250E236E800E226E63
:10010800010E246E000ECBEC02F0839083927E0EDB
:1001180000018C6FE70E0001936F000E0001956FD0
:10012800000E946F000E0001976F000E966F000E80
:100138000001996F000E986F000E00019B6F000E72
:100148009A6F000E0001AB6F000EAA6F000E00013F
:100158009D6F000E9C6F000E0001AD6F000EAC6F1E
:10016800000E00019F6F000E9E6F000E0001A76F2A
:10017800000EA66F000E0001A96F000EA86F000EFA
:100188000001A16F000EA06F000E0001A36F000E0A
:10019800A26F000E0001A46F000E0001A56F4004BD
:1001A800D8A40ED089C030F0316A8AC02EF02F6AE8
:1001B800000E406E000E0001A46F000E0001A56F36
:1001C80082A002D0010E01D0000EFF0A2A6E8250D2
:1001D8002A18FE0B2A18826E82A202D0010E01D0C4
:1001E800000EFF0A2A6E2A4682502A18FD0B2A188A
:1001F800826E000E116E020E106E47EC02F010C0F7
:100208003EF011C03FF0000E116E030E106E47EC69
:1002180002F010C03CF011C03DF0000E116E000E4F
:10022800106E47EC02F010C03AF011C03BF0000E1F
:10023800116E010E106E47EC02F010C038F011C0BC
:1002480039F03EC08DF03F5000018E6F3CC08FF0FA
:100258003D500001906F3AC010F03BC011F0000E05
:10026800136E0A0E126E3AEC03F010C034F011C08F
:1002780035F038C010F039C011F0000E136E0A0EB8
:10028800126E3AEC03F010C032F011C033F034C0F3
:1002980091F032C092F030C02AF031C02BF02A1E03
:1002A8002B1E2A4A2B2A34502A24106E35502B2014
:1002B800116EB7EC03F010C0AAF011C0ABF000014A
:1002C800AB510FE1020E0001AA5DD8B00AD030C0D0
:1002D80034F031C035F08390000E0001A76F000E96
:1002E800A66FAAC02AF0ABC02BF02A1E2B1E2A4AE2
:1002F8002B2A00019C512A240001A06F00019D5166
:100308002B200001A16F0001A0510001A111D8A468
:1003180004D00001A64BA72B05D0000E0001A76F43
:10032800000EA66FAAC09CF0ABC09DF00001A751BB
:1003380005E1150E0001A65DD8A008D0000E000149
:10034800A76F000EA66F010E0001A46F0001A45153
:100358000001D8A413D03050345C31503558D8B08F
:1003680004D083808180819409D03450305C35502A
:100378003158D8B003D08380819081842EC02AF070
:100388002FC02BF02A1E2B1E2A4A2B2A32502A2431
:10039800106E33502B20116EB7EC03F010C0ACF088
:1003A80011C0ADF00001AD510FE1020E0001AC5DCE
:1003B800D8B00AD02EC032F02FC033F08392000E8E
:1003C8000001A96F000EA86FACC02AF0ADC02BF0D9
:1003D8002A1E2B1E2A4A2B2A00019E512A2400017C
:1003E800A26F00019F512B200001A36F0001A251B1
:1003F8000001A311D8A404D00001A84BA92B05D053
:10040800000E0001A96F000EA86FACC09EF0ADC031
:100418009FF00001A95105E1150E0001A85DD8A0C3
:1004280008D0000E0001A96F000EA86F010E000190
:10043800A56F0001A5510001D8A413D02E50325C3D
:100448002F503358D8B004D08382838A839C09D034
:1004580032502E5C33502F58D8B003D08382839A01
:10046800838C8C0E116E000E126E080E136E82ECC9
:1004780003F01A0E2A6EF80EE82EFED72A2EFCD7A5
:1004880000F000F08CD616D0020EC26EFC0E0BD017
:10049800060EC26ECF0E07D00A0EC26EF30E03D040
:1004A8000E0EC26E3F0E996E1BD0000E116E000E1E
:1004B800106E120010C012F011C013F01350000A91
:1004C800D8A4F3D71250000AD8B4DED7010AD8B49A
:1004D800DFD7030AD8B4E0D7010AD8B4E1D7E5D703
:1004E800C280C282030E126E980EE82EFED7122E1C
:1004F800FCD7C2B2FED7C290C450136E126AC35062
:100508001224106E000E1320116E1200000E186EC9
:10051800000E196E000E1A6E000E1B6E1450151088
:1005280016101710D8B42AD0010E1C6E06D0D89019
:1005380014361536163617361C2A17AEF8D7D89043
:10054800183619361A361B361450105C15501158C7
:100558001650125817501358D8A009D01450105ECE
:100568001550115A1650125A1750135A1880D8900D
:1005780017321632153214321C2EE1D718C010F07B
:1005880019C011F01AC012F01BC013F01200296E26
:1005980030D0AA961EC010F01FC011F020C012F073
:1005A80021C013F02250256E2350266E276A286A30
:1005B800040ED8902536263627362836E82EF9D761
:1005C80025C014F026C015F027C016F028C017F073
:1005D8008AEC02F01004AF6E240EAC6E900EAB6E77
:1005E8002404D8A412009E9A9F9A9D8AF28EF28CB7
:1005F80012002950000AD8B4CCD7010AD8B4120086
:10060800030A1200106E18D0720ED36E1200620E1A
:10061800D36E1200520ED36E1200420ED36E120029
:10062800320ED36E1200220ED36E1200120ED36E4B
:100638001200020ED36E12001050000AD8B4E4D78C
:10064800010AD8B4E4D7030AD8B4E4D7010AD8B465
:10065800E4D7070AD8B4E4D7010AD8B4E4D7030A20
:10066800D8B4E4D7010AD8A41200E3D7000E166E56
:10067800000E156E12501310D8B41CD0010E146E53
:1006880004D0D89012361336142A13AEFAD7D8905D
:10069800153616361250105C13501158D8A005D0D4
:1006A8001250105E1350115A1580D890133212321E
:1006B800142EEDD715C010F016C011F01200BA0EA6
:1006C800F66E070EF76E000EF86E0900F5CF41F0D2
:1006D8000900F5CF42F000EE60F0340EEE6AE8064D
:1006E800FDE100EE2CF0150EEE6AE806FDE1439000
:1006F8004392000EF86E00016DEF00F0000E186EC8
:10070800000E176E0BD017501124D96E18501220F6
:10071800DA6EDF50D7EC03F0174A182A1350146E1C
:10072800156A1450175C1850800A166E1550800A06
:100738001658D8B01200E7D794908290949282927B
:10074800949C829C9390939495909592959A959C5D
:100758008190819483908392839A839C92848084ED
:1007680092868086120011AE0DD010C012F011C012
:1007780013F0121E131E124A132A12C010F013C0CF
:1007880011F0120010C010F011C011F012000E0E7E
:10079800C26E000EC16EAF0EC06EC00E9A6E3F0ED6
:1007A800996EC2901200106E9EA8FED710C0ADFFC1
:0407B800120001002A
:020000040020DA
:08000000FFFFFFFFFFFFFFFF00
:020000040030CA
:0E000000FFC8013E3C9D85FF0FC00FE00F4082
:00000001FF
